:100000000C942A000C9447000C9447000C94470071
:100010000C9447000C9447000C9447000C94470044
:100020000C9447000C9447000C9447000C94490032
:100030000C9472000C9447000C9447000C944700F9
:100040000C9447000C9447000C9447000C94470014
:100050000C94470011241FBECFE5D4E0DEBFCDBF16
:1000600010E0A0E6B0E0E0E5F5E002C005900D92FA
:10007000AA37B107D9F711E0AAE7B0E001C01D9295
:10008000AF39B107E1F70E94F7000C94A6020C9477
:1000900000001F920F920FB60F9211242F938F938F
:1000A0009F93EF93FF939BB12CB1E0919C01EF5F85
:1000B00080919D01E81711F482E008C0892F8871B2
:1000C000E0939C01F0E0E656FF4F208380939E0171
:1000D000FF91EF919F918F912F910F900FBE0F90F5
:1000E0001F9018951F920F920FB60F9211248F93A5
:1000F0009F93EF93FF9390919A0180919B019817A2
:1001000061F0E0919B01EF5FEF71E0939B01F0E004
:10011000E658FF4F80818CB901C05598FF91EF914F
:100120009F918F910F900FBE0F901F901895109276
:100130009C0110929D0108959C0110929A011092C9
:100140009B0110929C0110929D0197FF03C082E0D9
:100150008BB93F7730BD29B988E98AB986E880BD77
:10016000089590919C0180919D01981719F420E0C9
:1001700031E011C0E0919D01EF5FE0939D01F0E05F
:10018000E656FF4F308120919E01922F80E0AC0116
:10019000430F511D9A01C90108955D9BFECF8CB993
:1001A00008955D9BFECF8CB90895FC0104C05D9B52
:1001B000FECF31968CB980818823C9F7089503C09A
:1001C0005D9BFECF2CB9FC01019624912223C1F73F
:1001D000089596B1976196B987B93E9A3D9A379A34
:1001E000369A349BFECF349A85B190E008952F92D1
:1001F0003F924F925F926F927F928F929F92AF92B7
:10020000BF92CF92DF92EF92FF920F931F93DF93F3
:10021000CF93CDB7DEB76C970FB6F894DEBF0FBEA5
:10022000CDBF8FE084BB87E690E00E949C0078946D
:1002300080E690E00E94D500D09AD8988C9A8D9A4A
:100240008A9A8B9A8E9A8F9A949A959A95E0292EEB
:10025000312C2C0E3D1E87E0482E512C4C0E5D1E7D
:100260008FE085BB81E090E00E94E9008C0182E094
:1002700090E00E94E9004C0183E090E00E94E900D8
:100280003C0184E090E00E94E9005C0185E090E0A0
:100290000E94E9006C0186E090E00E94E9007C0188
:1002A000C801BE01675F7F4F4AE050E00E946102D3
:1002B000CE0109960E94D5008CE690E00E94D50000
:1002C000C401BE016D5E7F4F4AE050E00E946102B2
:1002D000CE0143960E94D5008EE690E00E94D500A4
:1002E000C301BE016F5F7F4F4AE050E00E94610290
:1002F000CE0101960E94D5008CE690E00E94D500C8
:10030000C501BE016D5F7F4F4AE050E00E9461026F
:10031000CE0103960E94D5008EE690E00E94D500A3
:10032000C601B1014AE050E00E946102C1010E9491
:10033000D5008CE690E00E94D500C701B2014AE0EA
:1003400050E00E946102C2010E94D5008EE690E05A
:100350000E94D5008EE690E00E94D50087E06816E6
:1003600071040CF057C087E0A816B1040CF098C0D7
:1003700086E0881691040CF493C086E0C816D10478
:100380000CF499C086E0E816F1040CF494C0929A3B
:100390009398979A969881E790E00E94D5008BC039
:1003A00087E0E816F1040CF07BC0929A9398979A34
:1003B000969881E790E00E94D50072C086E088168A
:1003C00091040CF472C086E0C816D1040CF46DC020
:1003D00086E0E816F1040CF468C0929A9398979816
:1003E000969A84E790E00E94D5005FC087E0881667
:1003F000910484F486E0C816D10464F086E0E8161F
:10040000F10444F0929A93989798969A84E790E032
:100410000E94D50086E068167104C4F087E0A81633
:10042000B104A4F486E08816910484F086E0C8162E
:10043000D10464F086E0E816F10444F09298939AAF
:10044000979A969887E790E00E94D50087E0681613
:1004500071040CF005CF87E0A816B1040CF000CFB2
:1004600087E0881691040CF0FBCE87E0C816D10413
:100470000CF0F6CE87E0E816F1040CF0F1CE92987D
:10048000939A979A969887E790E00E94D50088E81B
:1004900093E1E0E9F1E03197F1F70197D1F7E0CE90
:1004A00086E0A816B1040CF089CF87E0A816B10445
:1004B0000CF49CCFAFCF87E0C816D1040CF470CFFA
:1004C000EFCFFB019F01E8944230C4F04532B4F411
:1004D0004A3029F497FB1EF4909581959F4F642F25
:1004E00077270E949202805D8A330CF0895D8193A8
:1004F000CB010097A1F716F45DE251931082C90178
:100500000C948202DC01FC01672F71917723E1F7E3
:10051000329704C07C916D9370836291AE17BF07D0
:10052000C8F30895AA1BBB1B51E107C0AA1FBB1F3C
:10053000A617B70710F0A61BB70B881F991F5A956F
:10054000A9F780959095BC01CD010895F894FFCF4F
:10055000696E697469616C697A65640009000A0DE5
:0A05600000666F00726F006C6F0000
:00000001FF
